{
  "_format": "hh-sol-artifact-1",
  "contractName": "CryptoDevs",
  "sourceName": "contracts/CryptoDevs.sol",
  "abi": [
    {
      "inputs": [
        {
          "internalType": "address",
          "name": "whitelistContract",
          "type": "address"
        }
      ],
      "stateMutability": "nonpayable",
      "type": "constructor"
    },
    {
      "anonymous": false,
      "inputs": [
        {
          "indexed": true,
          "internalType": "address",
          "name": "owner",
          "type": "address"
        },
        {
          "indexed": true,
          "internalType": "address",
          "name": "approved",
          "type": "address"
        },
        {
          "indexed": true,
          "internalType": "uint256",
          "name": "tokenId",
          "type": "uint256"
        }
      ],
      "name": "Approval",
      "type": "event"
    },
    {
      "anonymous": false,
      "inputs": [
        {
          "indexed": true,
          "internalType": "address",
          "name": "owner",
          "type": "address"
        },
        {
          "indexed": true,
          "internalType": "address",
          "name": "operator",
          "type": "address"
        },
        {
          "indexed": false,
          "internalType": "bool",
          "name": "approved",
          "type": "bool"
        }
      ],
      "name": "ApprovalForAll",
      "type": "event"
    },
    {
      "anonymous": false,
      "inputs": [
        {
          "indexed": true,
          "internalType": "address",
          "name": "previousOwner",
          "type": "address"
        },
        {
          "indexed": true,
          "internalType": "address",
          "name": "newOwner",
          "type": "address"
        }
      ],
      "name": "OwnershipTransferred",
      "type": "event"
    },
    {
      "anonymous": false,
      "inputs": [
        {
          "indexed": true,
          "internalType": "address",
          "name": "from",
          "type": "address"
        },
        {
          "indexed": true,
          "internalType": "address",
          "name": "to",
          "type": "address"
        },
        {
          "indexed": true,
          "internalType": "uint256",
          "name": "tokenId",
          "type": "uint256"
        }
      ],
      "name": "Transfer",
      "type": "event"
    },
    {
      "inputs": [],
      "name": "_price",
      "outputs": [
        {
          "internalType": "uint256",
          "name": "",
          "type": "uint256"
        }
      ],
      "stateMutability": "view",
      "type": "function"
    },
    {
      "inputs": [
        {
          "internalType": "address",
          "name": "to",
          "type": "address"
        },
        {
          "internalType": "uint256",
          "name": "tokenId",
          "type": "uint256"
        }
      ],
      "name": "approve",
      "outputs": [],
      "stateMutability": "nonpayable",
      "type": "function"
    },
    {
      "inputs": [
        {
          "internalType": "address",
          "name": "owner",
          "type": "address"
        }
      ],
      "name": "balanceOf",
      "outputs": [
        {
          "internalType": "uint256",
          "name": "",
          "type": "uint256"
        }
      ],
      "stateMutability": "view",
      "type": "function"
    },
    {
      "inputs": [
        {
          "internalType": "uint256",
          "name": "tokenId",
          "type": "uint256"
        }
      ],
      "name": "getApproved",
      "outputs": [
        {
          "internalType": "address",
          "name": "",
          "type": "address"
        }
      ],
      "stateMutability": "view",
      "type": "function"
    },
    {
      "inputs": [
        {
          "internalType": "address",
          "name": "owner",
          "type": "address"
        },
        {
          "internalType": "address",
          "name": "operator",
          "type": "address"
        }
      ],
      "name": "isApprovedForAll",
      "outputs": [
        {
          "internalType": "bool",
          "name": "",
          "type": "bool"
        }
      ],
      "stateMutability": "view",
      "type": "function"
    },
    {
      "inputs": [],
      "name": "maxTokenIds",
      "outputs": [
        {
          "internalType": "uint256",
          "name": "",
          "type": "uint256"
        }
      ],
      "stateMutability": "view",
      "type": "function"
    },
    {
      "inputs": [],
      "name": "mint",
      "outputs": [],
      "stateMutability": "payable",
      "type": "function"
    },
    {
      "inputs": [],
      "name": "name",
      "outputs": [
        {
          "internalType": "string",
          "name": "",
          "type": "string"
        }
      ],
      "stateMutability": "view",
      "type": "function"
    },
    {
      "inputs": [],
      "name": "owner",
      "outputs": [
        {
          "internalType": "address",
          "name": "",
          "type": "address"
        }
      ],
      "stateMutability": "view",
      "type": "function"
    },
    {
      "inputs": [
        {
          "internalType": "uint256",
          "name": "tokenId",
          "type": "uint256"
        }
      ],
      "name": "ownerOf",
      "outputs": [
        {
          "internalType": "address",
          "name": "",
          "type": "address"
        }
      ],
      "stateMutability": "view",
      "type": "function"
    },
    {
      "inputs": [],
      "name": "renounceOwnership",
      "outputs": [],
      "stateMutability": "nonpayable",
      "type": "function"
    },
    {
      "inputs": [],
      "name": "reservedTokens",
      "outputs": [
        {
          "internalType": "uint256",
          "name": "",
          "type": "uint256"
        }
      ],
      "stateMutability": "view",
      "type": "function"
    },
    {
      "inputs": [],
      "name": "reservedTokensClaimed",
      "outputs": [
        {
          "internalType": "uint256",
          "name": "",
          "type": "uint256"
        }
      ],
      "stateMutability": "view",
      "type": "function"
    },
    {
      "inputs": [
        {
          "internalType": "address",
          "name": "from",
          "type": "address"
        },
        {
          "internalType": "address",
          "name": "to",
          "type": "address"
        },
        {
          "internalType": "uint256",
          "name": "tokenId",
          "type": "uint256"
        }
      ],
      "name": "safeTransferFrom",
      "outputs": [],
      "stateMutability": "nonpayable",
      "type": "function"
    },
    {
      "inputs": [
        {
          "internalType": "address",
          "name": "from",
          "type": "address"
        },
        {
          "internalType": "address",
          "name": "to",
          "type": "address"
        },
        {
          "internalType": "uint256",
          "name": "tokenId",
          "type": "uint256"
        },
        {
          "internalType": "bytes",
          "name": "data",
          "type": "bytes"
        }
      ],
      "name": "safeTransferFrom",
      "outputs": [],
      "stateMutability": "nonpayable",
      "type": "function"
    },
    {
      "inputs": [
        {
          "internalType": "address",
          "name": "operator",
          "type": "address"
        },
        {
          "internalType": "bool",
          "name": "approved",
          "type": "bool"
        }
      ],
      "name": "setApprovalForAll",
      "outputs": [],
      "stateMutability": "nonpayable",
      "type": "function"
    },
    {
      "inputs": [
        {
          "internalType": "bytes4",
          "name": "interfaceId",
          "type": "bytes4"
        }
      ],
      "name": "supportsInterface",
      "outputs": [
        {
          "internalType": "bool",
          "name": "",
          "type": "bool"
        }
      ],
      "stateMutability": "view",
      "type": "function"
    },
    {
      "inputs": [],
      "name": "symbol",
      "outputs": [
        {
          "internalType": "string",
          "name": "",
          "type": "string"
        }
      ],
      "stateMutability": "view",
      "type": "function"
    },
    {
      "inputs": [
        {
          "internalType": "uint256",
          "name": "index",
          "type": "uint256"
        }
      ],
      "name": "tokenByIndex",
      "outputs": [
        {
          "internalType": "uint256",
          "name": "",
          "type": "uint256"
        }
      ],
      "stateMutability": "view",
      "type": "function"
    },
    {
      "inputs": [
        {
          "internalType": "address",
          "name": "owner",
          "type": "address"
        },
        {
          "internalType": "uint256",
          "name": "index",
          "type": "uint256"
        }
      ],
      "name": "tokenOfOwnerByIndex",
      "outputs": [
        {
          "internalType": "uint256",
          "name": "",
          "type": "uint256"
        }
      ],
      "stateMutability": "view",
      "type": "function"
    },
    {
      "inputs": [
        {
          "internalType": "uint256",
          "name": "tokenId",
          "type": "uint256"
        }
      ],
      "name": "tokenURI",
      "outputs": [
        {
          "internalType": "string",
          "name": "",
          "type": "string"
        }
      ],
      "stateMutability": "view",
      "type": "function"
    },
    {
      "inputs": [],
      "name": "totalSupply",
      "outputs": [
        {
          "internalType": "uint256",
          "name": "",
          "type": "uint256"
        }
      ],
      "stateMutability": "view",
      "type": "function"
    },
    {
      "inputs": [
        {
          "internalType": "address",
          "name": "from",
          "type": "address"
        },
        {
          "internalType": "address",
          "name": "to",
          "type": "address"
        },
        {
          "internalType": "uint256",
          "name": "tokenId",
          "type": "uint256"
        }
      ],
      "name": "transferFrom",
      "outputs": [],
      "stateMutability": "nonpayable",
      "type": "function"
    },
    {
      "inputs": [
        {
          "internalType": "address",
          "name": "newOwner",
          "type": "address"
        }
      ],
      "name": "transferOwnership",
      "outputs": [],
      "stateMutability": "nonpayable",
      "type": "function"
    },
    {
      "inputs": [],
      "name": "withdraw",
      "outputs": [],
      "stateMutability": "nonpayable",
      "type": "function"
    }
  ],
  "bytecode": "0x60806040526000600d553480156200001657600080fd5b5060405162003f7b38038062003f7b83398181016040528101906200003c91906200030b565b6040518060400160405280600b81526020017f43727970746f20446576730000000000000000000000000000000000000000008152506040518060400160405280600281526020017f43440000000000000000000000000000000000000000000000000000000000008152508160009081620000b99190620005b7565b508060019081620000cb9190620005b7565b505050620000ee620000e2620001d360201b60201c565b620001db60201b60201c565b80600b60006101000a81548173ffffffffffffffffffffffffffffffffffffffff021916908373ffffffffffffffffffffffffffffffffffffffff160217905550600b60009054906101000a900473ffffffffffffffffffffffffffffffffffffffff1673ffffffffffffffffffffffffffffffffffffffff166331a721886040518163ffffffff1660e01b8152600401602060405180830381865afa1580156200019d573d6000803e3d6000fd5b505050506040513d601f19601f82011682018060405250810190620001c39190620006dc565b60ff16600c81905550506200070e565b600033905090565b6000600a60009054906101000a900473ffffffffffffffffffffffffffffffffffffffff16905081600a60006101000a81548173ffffffffffffffffffffffffffffffffffffffff021916908373ffffffffffffffffffffffffffffffffffffffff1602179055508173ffffffffffffffffffffffffffffffffffffffff168173ffffffffffffffffffffffffffffffffffffffff167f8be0079c531659141344cd1fd0a4f28419497f9722a3daafe3b4186f6b6457e060405160405180910390a35050565b600080fd5b600073ffffffffffffffffffffffffffffffffffffffff82169050919050565b6000620002d382620002a6565b9050919050565b620002e581620002c6565b8114620002f157600080fd5b50565b6000815190506200030581620002da565b92915050565b600060208284031215620003245762000323620002a1565b5b60006200033484828501620002f4565b91505092915050565b600081519050919050565b7f4e487b7100000000000000000000000000000000000000000000000000000000600052604160045260246000fd5b7f4e487b7100000000000000000000000000000000000000000000000000000000600052602260045260246000fd5b60006002820490506001821680620003bf57607f821691505b602082108103620003d557620003d462000377565b5b50919050565b60008190508160005260206000209050919050565b60006020601f8301049050919050565b600082821b905092915050565b6000600883026200043f7fffffffffffffffffffffffffffffffffffffffffffffffffffffffffffffffff8262000400565b6200044b868362000400565b95508019841693508086168417925050509392505050565b6000819050919050565b6000819050919050565b600062000498620004926200048c8462000463565b6200046d565b62000463565b9050919050565b6000819050919050565b620004b48362000477565b620004cc620004c3826200049f565b8484546200040d565b825550505050565b600090565b620004e3620004d4565b620004f0818484620004a9565b505050565b5b8181101562000518576200050c600082620004d9565b600181019050620004f6565b5050565b601f82111562000567576200053181620003db565b6200053c84620003f0565b810160208510156200054c578190505b620005646200055b85620003f0565b830182620004f5565b50505b505050565b600082821c905092915050565b60006200058c600019846008026200056c565b1980831691505092915050565b6000620005a7838362000579565b9150826002028217905092915050565b620005c2826200033d565b67ffffffffffffffff811115620005de57620005dd62000348565b5b620005ea8254620003a6565b620005f78282856200051c565b600060209050601f8311600181146200062f57600084156200061a578287015190505b62000626858262000599565b86555062000696565b601f1984166200063f86620003db565b60005b82811015620006695784890151825560018201915060208501945060208101905062000642565b8683101562000689578489015162000685601f89168262000579565b8355505b6001600288020188555050505b505050505050565b600060ff82169050919050565b620006b6816200069e565b8114620006c257600080fd5b50565b600081519050620006d681620006ab565b92915050565b600060208284031215620006f557620006f4620002a1565b5b60006200070584828501620006c5565b91505092915050565b61385d806200071e6000396000f3fe6080604052600436106101665760003560e01c80634f6ccce7116100d157806395d89b411161008a578063c87b56dd11610064578063c87b56dd1461050b578063e985e9c514610548578063f2fde38b14610585578063fdddd2cd146105ae57610166565b806395d89b411461048e578063a22cb465146104b9578063b88d4fde146104e257610166565b80634f6ccce71461036a5780635f769621146103a75780636352211e146103d257806370a082311461040f578063715018a61461044c5780638da5cb5b1461046357610166565b806318160ddd1161012357806318160ddd1461026e578063235b6ea11461029957806323b872dd146102c45780632f745c59146102ed5780633ccfd60b1461032a57806342842e0e1461034157610166565b806301ffc9a71461016b57806306fdde03146101a8578063081812fc146101d3578063095ea7b3146102105780631249c58b1461023957806315a5534714610243575b600080fd5b34801561017757600080fd5b50610192600480360381019061018d9190612578565b6105d9565b60405161019f91906125c0565b60405180910390f35b3480156101b457600080fd5b506101bd610653565b6040516101ca919061266b565b60405180910390f35b3480156101df57600080fd5b506101fa60048036038101906101f591906126c3565b6106e5565b6040516102079190612731565b60405180910390f35b34801561021c57600080fd5b5061023760048036038101906102329190612778565b61072b565b005b610241610842565b005b34801561024f57600080fd5b50610258610a27565b60405161026591906127c7565b60405180910390f35b34801561027a57600080fd5b50610283610a2d565b60405161029091906127c7565b60405180910390f35b3480156102a557600080fd5b506102ae610a3a565b6040516102bb91906127c7565b60405180910390f35b3480156102d057600080fd5b506102eb60048036038101906102e691906127e2565b610a45565b005b3480156102f957600080fd5b50610314600480360381019061030f9190612778565b610aa5565b60405161032191906127c7565b60405180910390f35b34801561033657600080fd5b5061033f610b4a565b005b34801561034d57600080fd5b50610368600480360381019061036391906127e2565b610c14565b005b34801561037657600080fd5b50610391600480360381019061038c91906126c3565b610c34565b60405161039e91906127c7565b60405180910390f35b3480156103b357600080fd5b506103bc610ca5565b6040516103c991906127c7565b60405180910390f35b3480156103de57600080fd5b506103f960048036038101906103f491906126c3565b610caa565b6040516104069190612731565b60405180910390f35b34801561041b57600080fd5b5061043660048036038101906104319190612835565b610d30565b60405161044391906127c7565b60405180910390f35b34801561045857600080fd5b50610461610de7565b005b34801561046f57600080fd5b50610478610dfb565b6040516104859190612731565b60405180910390f35b34801561049a57600080fd5b506104a3610e25565b6040516104b0919061266b565b60405180910390f35b3480156104c557600080fd5b506104e060048036038101906104db919061288e565b610eb7565b005b3480156104ee57600080fd5b5061050960048036038101906105049190612a03565b610ecd565b005b34801561051757600080fd5b50610532600480360381019061052d91906126c3565b610f2f565b60405161053f919061266b565b60405180910390f35b34801561055457600080fd5b5061056f600480360381019061056a9190612a86565b610f97565b60405161057c91906125c0565b60405180910390f35b34801561059157600080fd5b506105ac60048036038101906105a79190612835565b61102b565b005b3480156105ba57600080fd5b506105c36110ae565b6040516105d091906127c7565b60405180910390f35b60007f780e9d63000000000000000000000000000000000000000000000000000000007bffffffffffffffffffffffffffffffffffffffffffffffffffffffff1916827bffffffffffffffffffffffffffffffffffffffffffffffffffffffff1916148061064c575061064b826110b4565b5b9050919050565b60606000805461066290612af5565b80601f016020809104026020016040519081016040528092919081815260200182805461068e90612af5565b80156106db5780601f106106b0576101008083540402835291602001916106db565b820191906000526020600020905b8154815290600101906020018083116106be57829003601f168201915b5050505050905090565b60006106f082611196565b6004600083815260200190815260200160002060009054906101000a900473ffffffffffffffffffffffffffffffffffffffff169050919050565b600061073682610caa565b90508073ffffffffffffffffffffffffffffffffffffffff168373ffffffffffffffffffffffffffffffffffffffff16036107a6576040517f08c379a000000000000000000000000000000000000000000000000000000000815260040161079d90612b98565b60405180910390fd5b8073ffffffffffffffffffffffffffffffffffffffff166107c56111e1565b73ffffffffffffffffffffffffffffffffffffffff1614806107f457506107f3816107ee6111e1565b610f97565b5b610833576040517f08c379a000000000000000000000000000000000000000000000000000000000815260040161082a90612c2a565b60405180910390fd5b61083d83836111e9565b505050565b6014600d54600c54610852610a2d565b61085c9190612c79565b6108669190612cad565b106108a6576040517f08c379a000000000000000000000000000000000000000000000000000000000815260040161089d90612d2d565b60405180910390fd5b600b60009054906101000a900473ffffffffffffffffffffffffffffffffffffffff1673ffffffffffffffffffffffffffffffffffffffff166306c933d8336040518263ffffffff1660e01b81526004016109019190612731565b602060405180830381865afa15801561091e573d6000803e3d6000fd5b505050506040513d601f19601f820116820180604052508101906109429190612d62565b80156109545750662386f26fc1000034105b156109c357600061096433610d30565b146109a4576040517f08c379a000000000000000000000000000000000000000000000000000000000815260040161099b90612ddb565b60405180910390fd5b6001600d60008282546109b79190612c79565b92505081905550610a0e565b662386f26fc10000341015610a0d576040517f08c379a0000000000000000000000000000000000000000000000000000000008152600401610a0490612e47565b60405180910390fd5b5b6000610a18610a2d565b9050610a2433826112a2565b50565b600c5481565b6000600880549050905090565b662386f26fc1000081565b610a56610a506111e1565b826112c0565b610a95576040517f08c379a0000000000000000000000000000000000000000000000000000000008152600401610a8c90612ed9565b60405180910390fd5b610aa0838383611355565b505050565b6000610ab083610d30565b8210610af1576040517f08c379a0000000000000000000000000000000000000000000000000000000008152600401610ae890612f6b565b60405180910390fd5b600660008473ffffffffffffffffffffffffffffffffffffffff1673ffffffffffffffffffffffffffffffffffffffff168152602001908152602001600020600083815260200190815260200160002054905092915050565b610b5261164e565b6000610b5c610dfb565b9050600047905060008273ffffffffffffffffffffffffffffffffffffffff1682604051610b8990612fbc565b60006040518083038185875af1925050503d8060008114610bc6576040519150601f19603f3d011682016040523d82523d6000602084013e610bcb565b606091505b5050905080610c0f576040517f08c379a0000000000000000000000000000000000000000000000000000000008152600401610c069061301d565b60405180910390fd5b505050565b610c2f83838360405180602001604052806000815250610ecd565b505050565b6000610c3e610a2d565b8210610c7f576040517f08c379a0000000000000000000000000000000000000000000000000000000008152600401610c76906130af565b60405180910390fd5b60088281548110610c9357610c926130cf565b5b90600052602060002001549050919050565b601481565b600080610cb6836116cc565b9050600073ffffffffffffffffffffffffffffffffffffffff168173ffffffffffffffffffffffffffffffffffffffff1603610d27576040517f08c379a0000000000000000000000000000000000000000000000000000000008152600401610d1e9061314a565b60405180910390fd5b80915050919050565b60008073ffffffffffffffffffffffffffffffffffffffff168273ffffffffffffffffffffffffffffffffffffffff1603610da0576040517f08c379a0000000000000000000000000000000000000000000000000000000008152600401610d97906131dc565b60405180910390fd5b600360008373ffffffffffffffffffffffffffffffffffffffff1673ffffffffffffffffffffffffffffffffffffffff168152602001908152602001600020549050919050565b610def61164e565b610df96000611709565b565b6000600a60009054906101000a900473ffffffffffffffffffffffffffffffffffffffff16905090565b606060018054610e3490612af5565b80601f0160208091040260200160405190810160405280929190818152602001828054610e6090612af5565b8015610ead5780601f10610e8257610100808354040283529160200191610ead565b820191906000526020600020905b815481529060010190602001808311610e9057829003601f168201915b5050505050905090565b610ec9610ec26111e1565b83836117cf565b5050565b610ede610ed86111e1565b836112c0565b610f1d576040517f08c379a0000000000000000000000000000000000000000000000000000000008152600401610f1490612ed9565b60405180910390fd5b610f298484848461193b565b50505050565b6060610f3a82611196565b6000610f44611997565b90506000815111610f645760405180602001604052806000815250610f8f565b80610f6e846119ae565b604051602001610f7f929190613238565b6040516020818303038152906040525b915050919050565b6000600560008473ffffffffffffffffffffffffffffffffffffffff1673ffffffffffffffffffffffffffffffffffffffff16815260200190815260200160002060008373ffffffffffffffffffffffffffffffffffffffff1673ffffffffffffffffffffffffffffffffffffffff16815260200190815260200160002060009054906101000a900460ff16905092915050565b61103361164e565b600073ffffffffffffffffffffffffffffffffffffffff168173ffffffffffffffffffffffffffffffffffffffff16036110a2576040517f08c379a0000000000000000000000000000000000000000000000000000000008152600401611099906132ce565b60405180910390fd5b6110ab81611709565b50565b600d5481565b60007f80ac58cd000000000000000000000000000000000000000000000000000000007bffffffffffffffffffffffffffffffffffffffffffffffffffffffff1916827bffffffffffffffffffffffffffffffffffffffffffffffffffffffff1916148061117f57507f5b5e139f000000000000000000000000000000000000000000000000000000007bffffffffffffffffffffffffffffffffffffffffffffffffffffffff1916827bffffffffffffffffffffffffffffffffffffffffffffffffffffffff1916145b8061118f575061118e82611a7c565b5b9050919050565b61119f81611ae6565b6111de576040517f08c379a00000000000000000000000000000000000000000000000000000000081526004016111d59061314a565b60405180910390fd5b50565b600033905090565b816004600083815260200190815260200160002060006101000a81548173ffffffffffffffffffffffffffffffffffffffff021916908373ffffffffffffffffffffffffffffffffffffffff160217905550808273ffffffffffffffffffffffffffffffffffffffff1661125c83610caa565b73ffffffffffffffffffffffffffffffffffffffff167f8c5be1e5ebec7d5bd14f71427d1e84f3dd0314c0f7b2291e5b200ac8c7c3b92560405160405180910390a45050565b6112bc828260405180602001604052806000815250611b27565b5050565b6000806112cc83610caa565b90508073ffffffffffffffffffffffffffffffffffffffff168473ffffffffffffffffffffffffffffffffffffffff16148061130e575061130d8185610f97565b5b8061134c57508373ffffffffffffffffffffffffffffffffffffffff16611334846106e5565b73ffffffffffffffffffffffffffffffffffffffff16145b91505092915050565b8273ffffffffffffffffffffffffffffffffffffffff1661137582610caa565b73ffffffffffffffffffffffffffffffffffffffff16146113cb576040517f08c379a00000000000000000000000000000000000000000000000000000000081526004016113c290613360565b60405180910390fd5b600073ffffffffffffffffffffffffffffffffffffffff168273ffffffffffffffffffffffffffffffffffffffff160361143a576040517f08c379a0000000000000000000000000000000000000000000000000000000008152600401611431906133f2565b60405180910390fd5b6114478383836001611b82565b8273ffffffffffffffffffffffffffffffffffffffff1661146782610caa565b73ffffffffffffffffffffffffffffffffffffffff16146114bd576040517f08c379a00000000000000000000000000000000000000000000000000000000081526004016114b490613360565b60405180910390fd5b6004600082815260200190815260200160002060006101000a81549073ffffffffffffffffffffffffffffffffffffffff02191690556001600360008573ffffffffffffffffffffffffffffffffffffffff1673ffffffffffffffffffffffffffffffffffffffff168152602001908152602001600020600082825403925050819055506001600360008473ffffffffffffffffffffffffffffffffffffffff1673ffffffffffffffffffffffffffffffffffffffff16815260200190815260200160002060008282540192505081905550816002600083815260200190815260200160002060006101000a81548173ffffffffffffffffffffffffffffffffffffffff021916908373ffffffffffffffffffffffffffffffffffffffff160217905550808273ffffffffffffffffffffffffffffffffffffffff168473ffffffffffffffffffffffffffffffffffffffff167fddf252ad1be2c89b69c2b068fc378daa952ba7f163c4a11628f55a4df523b3ef60405160405180910390a46116498383836001611ce0565b505050565b6116566111e1565b73ffffffffffffffffffffffffffffffffffffffff16611674610dfb565b73ffffffffffffffffffffffffffffffffffffffff16146116ca576040517f08c379a00000000000000000000000000000000000000000000000000000000081526004016116c19061345e565b60405180910390fd5b565b60006002600083815260200190815260200160002060009054906101000a900473ffffffffffffffffffffffffffffffffffffffff169050919050565b6000600a60009054906101000a900473ffffffffffffffffffffffffffffffffffffffff16905081600a60006101000a81548173ffffffffffffffffffffffffffffffffffffffff021916908373ffffffffffffffffffffffffffffffffffffffff1602179055508173ffffffffffffffffffffffffffffffffffffffff168173ffffffffffffffffffffffffffffffffffffffff167f8be0079c531659141344cd1fd0a4f28419497f9722a3daafe3b4186f6b6457e060405160405180910390a35050565b8173ffffffffffffffffffffffffffffffffffffffff168373ffffffffffffffffffffffffffffffffffffffff160361183d576040517f08c379a0000000000000000000000000000000000000000000000000000000008152600401611834906134ca565b60405180910390fd5b80600560008573ffffffffffffffffffffffffffffffffffffffff1673ffffffffffffffffffffffffffffffffffffffff16815260200190815260200160002060008473ffffffffffffffffffffffffffffffffffffffff1673ffffffffffffffffffffffffffffffffffffffff16815260200190815260200160002060006101000a81548160ff0219169083151502179055508173ffffffffffffffffffffffffffffffffffffffff168373ffffffffffffffffffffffffffffffffffffffff167f17307eab39ab6107e8899845ad3d59bd9653f200f220920489ca2b5937696c318360405161192e91906125c0565b60405180910390a3505050565b611946848484611355565b61195284848484611ce6565b611991576040517f08c379a00000000000000000000000000000000000000000000000000000000081526004016119889061355c565b60405180910390fd5b50505050565b606060405180602001604052806000815250905090565b6060600060016119bd84611e6d565b01905060008167ffffffffffffffff8111156119dc576119db6128d8565b5b6040519080825280601f01601f191660200182016040528015611a0e5781602001600182028036833780820191505090505b509050600082602001820190505b600115611a71578080600190039150507f3031323334353637383961626364656600000000000000000000000000000000600a86061a8153600a8581611a6557611a6461357c565b5b04945060008503611a1c575b819350505050919050565b60007f01ffc9a7000000000000000000000000000000000000000000000000000000007bffffffffffffffffffffffffffffffffffffffffffffffffffffffff1916827bffffffffffffffffffffffffffffffffffffffffffffffffffffffff1916149050919050565b60008073ffffffffffffffffffffffffffffffffffffffff16611b08836116cc565b73ffffffffffffffffffffffffffffffffffffffff1614159050919050565b611b318383611fc0565b611b3e6000848484611ce6565b611b7d576040517f08c379a0000000000000000000000000000000000000000000000000000000008152600401611b749061355c565b60405180910390fd5b505050565b611b8e848484846121dd565b6001811115611bd2576040517f08c379a0000000000000000000000000000000000000000000000000000000008152600401611bc99061361d565b60405180910390fd5b6000829050600073ffffffffffffffffffffffffffffffffffffffff168573ffffffffffffffffffffffffffffffffffffffff1603611c1957611c14816121e3565b611c58565b8373ffffffffffffffffffffffffffffffffffffffff168573ffffffffffffffffffffffffffffffffffffffff1614611c5757611c56858261222c565b5b5b600073ffffffffffffffffffffffffffffffffffffffff168473ffffffffffffffffffffffffffffffffffffffff1603611c9a57611c9581612399565b611cd9565b8473ffffffffffffffffffffffffffffffffffffffff168473ffffffffffffffffffffffffffffffffffffffff1614611cd857611cd7848261246a565b5b5b5050505050565b50505050565b6000611d078473ffffffffffffffffffffffffffffffffffffffff166124e9565b15611e60578373ffffffffffffffffffffffffffffffffffffffff1663150b7a02611d306111e1565b8786866040518563ffffffff1660e01b8152600401611d529493929190613692565b6020604051808303816000875af1925050508015611d8e57506040513d601f19601f82011682018060405250810190611d8b91906136f3565b60015b611e10573d8060008114611dbe576040519150601f19603f3d011682016040523d82523d6000602084013e611dc3565b606091505b506000815103611e08576040517f08c379a0000000000000000000000000000000000000000000000000000000008152600401611dff9061355c565b60405180910390fd5b805181602001fd5b63150b7a0260e01b7bffffffffffffffffffffffffffffffffffffffffffffffffffffffff1916817bffffffffffffffffffffffffffffffffffffffffffffffffffffffff191614915050611e65565b600190505b949350505050565b600080600090507a184f03e93ff9f4daa797ed6e38ed64bf6a1f0100000000000000008310611ecb577a184f03e93ff9f4daa797ed6e38ed64bf6a1f0100000000000000008381611ec157611ec061357c565b5b0492506040810190505b6d04ee2d6d415b85acef81000000008310611f08576d04ee2d6d415b85acef81000000008381611efe57611efd61357c565b5b0492506020810190505b662386f26fc100008310611f3757662386f26fc100008381611f2d57611f2c61357c565b5b0492506010810190505b6305f5e1008310611f60576305f5e1008381611f5657611f5561357c565b5b0492506008810190505b6127108310611f85576127108381611f7b57611f7a61357c565b5b0492506004810190505b60648310611fa85760648381611f9e57611f9d61357c565b5b0492506002810190505b600a8310611fb7576001810190505b80915050919050565b600073ffffffffffffffffffffffffffffffffffffffff168273ffffffffffffffffffffffffffffffffffffffff160361202f576040517f08c379a00000000000000000000000000000000000000000000000000000000081526004016120269061376c565b60405180910390fd5b61203881611ae6565b15612078576040517f08c379a000000000000000000000000000000000000000000000000000000000815260040161206f906137d8565b60405180910390fd5b612086600083836001611b82565b61208f81611ae6565b156120cf576040517f08c379a00000000000000000000000000000000000000000000000000000000081526004016120c6906137d8565b60405180910390fd5b6001600360008473ffffffffffffffffffffffffffffffffffffffff1673ffffffffffffffffffffffffffffffffffffffff16815260200190815260200160002060008282540192505081905550816002600083815260200190815260200160002060006101000a81548173ffffffffffffffffffffffffffffffffffffffff021916908373ffffffffffffffffffffffffffffffffffffffff160217905550808273ffffffffffffffffffffffffffffffffffffffff16600073ffffffffffffffffffffffffffffffffffffffff167fddf252ad1be2c89b69c2b068fc378daa952ba7f163c4a11628f55a4df523b3ef60405160405180910390a46121d9600083836001611ce0565b5050565b50505050565b6008805490506009600083815260200190815260200160002081905550600881908060018154018082558091505060019003906000526020600020016000909190919091505550565b6000600161223984610d30565b6122439190612cad565b9050600060076000848152602001908152602001600020549050818114612328576000600660008673ffffffffffffffffffffffffffffffffffffffff1673ffffffffffffffffffffffffffffffffffffffff168152602001908152602001600020600084815260200190815260200160002054905080600660008773ffffffffffffffffffffffffffffffffffffffff1673ffffffffffffffffffffffffffffffffffffffff168152602001908152602001600020600084815260200190815260200160002081905550816007600083815260200190815260200160002081905550505b6007600084815260200190815260200160002060009055600660008573ffffffffffffffffffffffffffffffffffffffff1673ffffffffffffffffffffffffffffffffffffffff16815260200190815260200160002060008381526020019081526020016000206000905550505050565b600060016008805490506123ad9190612cad565b90506000600960008481526020019081526020016000205490506000600883815481106123dd576123dc6130cf565b5b9060005260206000200154905080600883815481106123ff576123fe6130cf565b5b90600052602060002001819055508160096000838152602001908152602001600020819055506009600085815260200190815260200160002060009055600880548061244e5761244d6137f8565b5b6001900381819060005260206000200160009055905550505050565b600061247583610d30565b905081600660008573ffffffffffffffffffffffffffffffffffffffff1673ffffffffffffffffffffffffffffffffffffffff168152602001908152602001600020600083815260200190815260200160002081905550806007600084815260200190815260200160002081905550505050565b6000808273ffffffffffffffffffffffffffffffffffffffff163b119050919050565b6000604051905090565b600080fd5b600080fd5b60007fffffffff0000000000000000000000000000000000000000000000000000000082169050919050565b61255581612520565b811461256057600080fd5b50565b6000813590506125728161254c565b92915050565b60006020828403121561258e5761258d612516565b5b600061259c84828501612563565b91505092915050565b60008115159050919050565b6125ba816125a5565b82525050565b60006020820190506125d560008301846125b1565b92915050565b600081519050919050565b600082825260208201905092915050565b60005b838110156126155780820151818401526020810190506125fa565b60008484015250505050565b6000601f19601f8301169050919050565b600061263d826125db565b61264781856125e6565b93506126578185602086016125f7565b61266081612621565b840191505092915050565b600060208201905081810360008301526126858184612632565b905092915050565b6000819050919050565b6126a08161268d565b81146126ab57600080fd5b50565b6000813590506126bd81612697565b92915050565b6000602082840312156126d9576126d8612516565b5b60006126e7848285016126ae565b91505092915050565b600073ffffffffffffffffffffffffffffffffffffffff82169050919050565b600061271b826126f0565b9050919050565b61272b81612710565b82525050565b60006020820190506127466000830184612722565b92915050565b61275581612710565b811461276057600080fd5b50565b6000813590506127728161274c565b92915050565b6000806040838503121561278f5761278e612516565b5b600061279d85828601612763565b92505060206127ae858286016126ae565b9150509250929050565b6127c18161268d565b82525050565b60006020820190506127dc60008301846127b8565b92915050565b6000806000606084860312156127fb576127fa612516565b5b600061280986828701612763565b935050602061281a86828701612763565b925050604061282b868287016126ae565b9150509250925092565b60006020828403121561284b5761284a612516565b5b600061285984828501612763565b91505092915050565b61286b816125a5565b811461287657600080fd5b50565b60008135905061288881612862565b92915050565b600080604083850312156128a5576128a4612516565b5b60006128b385828601612763565b92505060206128c485828601612879565b9150509250929050565b600080fd5b600080fd5b7f4e487b7100000000000000000000000000000000000000000000000000000000600052604160045260246000fd5b61291082612621565b810181811067ffffffffffffffff8211171561292f5761292e6128d8565b5b80604052505050565b600061294261250c565b905061294e8282612907565b919050565b600067ffffffffffffffff82111561296e5761296d6128d8565b5b61297782612621565b9050602081019050919050565b82818337600083830152505050565b60006129a66129a184612953565b612938565b9050828152602081018484840111156129c2576129c16128d3565b5b6129cd848285612984565b509392505050565b600082601f8301126129ea576129e96128ce565b5b81356129fa848260208601612993565b91505092915050565b60008060008060808587031215612a1d57612a1c612516565b5b6000612a2b87828801612763565b9450506020612a3c87828801612763565b9350506040612a4d878288016126ae565b925050606085013567ffffffffffffffff811115612a6e57612a6d61251b565b5b612a7a878288016129d5565b91505092959194509250565b60008060408385031215612a9d57612a9c612516565b5b6000612aab85828601612763565b9250506020612abc85828601612763565b9150509250929050565b7f4e487b7100000000000000000000000000000000000000000000000000000000600052602260045260246000fd5b60006002820490506001821680612b0d57607f821691505b602082108103612b2057612b1f612ac6565b5b50919050565b7f4552433732313a20617070726f76616c20746f2063757272656e74206f776e6560008201527f7200000000000000000000000000000000000000000000000000000000000000602082015250565b6000612b826021836125e6565b9150612b8d82612b26565b604082019050919050565b60006020820190508181036000830152612bb181612b75565b9050919050565b7f4552433732313a20617070726f76652063616c6c6572206973206e6f7420746f60008201527f6b656e206f776e6572206f7220617070726f76656420666f7220616c6c000000602082015250565b6000612c14603d836125e6565b9150612c1f82612bb8565b604082019050919050565b60006020820190508181036000830152612c4381612c07565b9050919050565b7f4e487b7100000000000000000000000000000000000000000000000000000000600052601160045260246000fd5b6000612c848261268d565b9150612c8f8361268d565b9250828201905080821115612ca757612ca6612c4a565b5b92915050565b6000612cb88261268d565b9150612cc38361268d565b9250828203905081811115612cdb57612cda612c4a565b5b92915050565b7f45584345454445445f4d41585f535550504c5900000000000000000000000000600082015250565b6000612d176013836125e6565b9150612d2282612ce1565b602082019050919050565b60006020820190508181036000830152612d4681612d0a565b9050919050565b600081519050612d5c81612862565b92915050565b600060208284031215612d7857612d77612516565b5b6000612d8684828501612d4d565b91505092915050565b7f414c52454144595f4f574e454400000000000000000000000000000000000000600082015250565b6000612dc5600d836125e6565b9150612dd082612d8f565b602082019050919050565b60006020820190508181036000830152612df481612db8565b9050919050565b7f4e4f545f454e4f5547485f455448455200000000000000000000000000000000600082015250565b6000612e316010836125e6565b9150612e3c82612dfb565b602082019050919050565b60006020820190508181036000830152612e6081612e24565b9050919050565b7f4552433732313a2063616c6c6572206973206e6f7420746f6b656e206f776e6560008201527f72206f7220617070726f76656400000000000000000000000000000000000000602082015250565b6000612ec3602d836125e6565b9150612ece82612e67565b604082019050919050565b60006020820190508181036000830152612ef281612eb6565b9050919050565b7f455243373231456e756d657261626c653a206f776e657220696e646578206f7560008201527f74206f6620626f756e6473000000000000000000000000000000000000000000602082015250565b6000612f55602b836125e6565b9150612f6082612ef9565b604082019050919050565b60006020820190508181036000830152612f8481612f48565b9050919050565b600081905092915050565b50565b6000612fa6600083612f8b565b9150612fb182612f96565b600082019050919050565b6000612fc782612f99565b9150819050919050565b7f4661696c656420746f2073656e64204574686572000000000000000000000000600082015250565b60006130076014836125e6565b915061301282612fd1565b602082019050919050565b6000602082019050818103600083015261303681612ffa565b9050919050565b7f455243373231456e756d657261626c653a20676c6f62616c20696e646578206f60008201527f7574206f6620626f756e64730000000000000000000000000000000000000000602082015250565b6000613099602c836125e6565b91506130a48261303d565b604082019050919050565b600060208201905081810360008301526130c88161308c565b9050919050565b7f4e487b7100000000000000000000000000000000000000000000000000000000600052603260045260246000fd5b7f4552433732313a20696e76616c696420746f6b656e2049440000000000000000600082015250565b60006131346018836125e6565b915061313f826130fe565b602082019050919050565b6000602082019050818103600083015261316381613127565b9050919050565b7f4552433732313a2061646472657373207a65726f206973206e6f74206120766160008201527f6c6964206f776e65720000000000000000000000000000000000000000000000602082015250565b60006131c66029836125e6565b91506131d18261316a565b604082019050919050565b600060208201905081810360008301526131f5816131b9565b9050919050565b600081905092915050565b6000613212826125db565b61321c81856131fc565b935061322c8185602086016125f7565b80840191505092915050565b60006132448285613207565b91506132508284613207565b91508190509392505050565b7f4f776e61626c653a206e6577206f776e657220697320746865207a65726f206160008201527f6464726573730000000000000000000000000000000000000000000000000000602082015250565b60006132b86026836125e6565b91506132c38261325c565b604082019050919050565b600060208201905081810360008301526132e7816132ab565b9050919050565b7f4552433732313a207472616e736665722066726f6d20696e636f72726563742060008201527f6f776e6572000000000000000000000000000000000000000000000000000000602082015250565b600061334a6025836125e6565b9150613355826132ee565b604082019050919050565b600060208201905081810360008301526133798161333d565b9050919050565b7f4552433732313a207472616e7366657220746f20746865207a65726f2061646460008201527f7265737300000000000000000000000000000000000000000000000000000000602082015250565b60006133dc6024836125e6565b91506133e782613380565b604082019050919050565b6000602082019050818103600083015261340b816133cf565b9050919050565b7f4f776e61626c653a2063616c6c6572206973206e6f7420746865206f776e6572600082015250565b60006134486020836125e6565b915061345382613412565b602082019050919050565b600060208201905081810360008301526134778161343b565b9050919050565b7f4552433732313a20617070726f766520746f2063616c6c657200000000000000600082015250565b60006134b46019836125e6565b91506134bf8261347e565b602082019050919050565b600060208201905081810360008301526134e3816134a7565b9050919050565b7f4552433732313a207472616e7366657220746f206e6f6e20455243373231526560008201527f63656976657220696d706c656d656e7465720000000000000000000000000000602082015250565b60006135466032836125e6565b9150613551826134ea565b604082019050919050565b6000602082019050818103600083015261357581613539565b9050919050565b7f4e487b7100000000000000000000000000000000000000000000000000000000600052601260045260246000fd5b7f455243373231456e756d657261626c653a20636f6e736563757469766520747260008201527f616e7366657273206e6f7420737570706f727465640000000000000000000000602082015250565b60006136076035836125e6565b9150613612826135ab565b604082019050919050565b60006020820190508181036000830152613636816135fa565b9050919050565b600081519050919050565b600082825260208201905092915050565b60006136648261363d565b61366e8185613648565b935061367e8185602086016125f7565b61368781612621565b840191505092915050565b60006080820190506136a76000830187612722565b6136b46020830186612722565b6136c160408301856127b8565b81810360608301526136d38184613659565b905095945050505050565b6000815190506136ed8161254c565b92915050565b60006020828403121561370957613708612516565b5b6000613717848285016136de565b91505092915050565b7f4552433732313a206d696e7420746f20746865207a65726f2061646472657373600082015250565b60006137566020836125e6565b915061376182613720565b602082019050919050565b6000602082019050818103600083015261378581613749565b9050919050565b7f4552433732313a20746f6b656e20616c7265616479206d696e74656400000000600082015250565b60006137c2601c836125e6565b91506137cd8261378c565b602082019050919050565b600060208201905081810360008301526137f1816137b5565b9050919050565b7f4e487b7100000000000000000000000000000000000000000000000000000000600052603160045260246000fdfea264697066735822122072ad31d068af4dfaba8719513a075e79349e055a52c79d6ef4058f12816ae85b64736f6c63430008130033",
  "linkReferences": {},
  "deployedLinkReferences": {}
}